{
	"simpleVoting.sol": {
		"SimpleVoting": {
			"abi": [
				{
					"inputs": [],
					"stateMutability": "nonpayable",
					"type": "constructor"
				},
				{
					"inputs": [],
					"name": "admin",
					"outputs": [
						{
							"internalType": "address",
							"name": "",
							"type": "address"
						}
					],
					"stateMutability": "view",
					"type": "function"
				},
				{
					"inputs": [],
					"name": "candidate1Votes",
					"outputs": [
						{
							"internalType": "uint256",
							"name": "",
							"type": "uint256"
						}
					],
					"stateMutability": "view",
					"type": "function"
				},
				{
					"inputs": [],
					"name": "candidate2Votes",
					"outputs": [
						{
							"internalType": "uint256",
							"name": "",
							"type": "uint256"
						}
					],
					"stateMutability": "view",
					"type": "function"
				},
				{
					"inputs": [],
					"name": "getVotes",
					"outputs": [
						{
							"internalType": "uint256",
							"name": "",
							"type": "uint256"
						},
						{
							"internalType": "uint256",
							"name": "",
							"type": "uint256"
						}
					],
					"stateMutability": "view",
					"type": "function"
				},
				{
					"inputs": [
						{
							"internalType": "address",
							"name": "",
							"type": "address"
						}
					],
					"name": "hasVoted",
					"outputs": [
						{
							"internalType": "bool",
							"name": "",
							"type": "bool"
						}
					],
					"stateMutability": "view",
					"type": "function"
				},
				{
					"inputs": [
						{
							"internalType": "bool",
							"name": "_status",
							"type": "bool"
						}
					],
					"name": "toggleVoting",
					"outputs": [],
					"stateMutability": "nonpayable",
					"type": "function"
				},
				{
					"inputs": [
						{
							"internalType": "uint256",
							"name": "_candidateId",
							"type": "uint256"
						}
					],
					"name": "vote",
					"outputs": [],
					"stateMutability": "nonpayable",
					"type": "function"
				},
				{
					"inputs": [],
					"name": "votingOn",
					"outputs": [
						{
							"internalType": "bool",
							"name": "",
							"type": "bool"
						}
					],
					"stateMutability": "view",
					"type": "function"
				}
			],
			"devdoc": {
				"kind": "dev",
				"methods": {},
				"version": 1
			},
			"evm": {
				"assembly": "    /* \"simpleVoting.sol\":60:1263  contract SimpleVoting {... */\n  mstore(0x40, 0x80)\n    /* \"simpleVoting.sol\":268:402  constructor() {... */\n  callvalue\n  dup1\n  iszero\n  tag_1\n  jumpi\n  revert(0x00, 0x00)\ntag_1:\n  pop\n    /* \"simpleVoting.sol\":301:311  msg.sender */\n  caller\n    /* \"simpleVoting.sol\":293:298  admin */\n  0x00\n  0x00\n    /* \"simpleVoting.sol\":293:311  admin = msg.sender */\n  0x0100\n  exp\n  dup2\n  sload\n  dup2\n  0xffffffffffffffffffffffffffffffffffffffff\n  mul\n  not\n  and\n  swap1\n  dup4\n  0xffffffffffffffffffffffffffffffffffffffff\n  and\n  mul\n  or\n  swap1\n  sstore\n  pop\n    /* \"simpleVoting.sol\":363:367  true */\n  0x01\n    /* \"simpleVoting.sol\":352:360  votingOn */\n  0x03\n  0x00\n    /* \"simpleVoting.sol\":352:367  votingOn = true */\n  0x0100\n  exp\n  dup2\n  sload\n  dup2\n  0xff\n  mul\n  not\n  and\n  swap1\n  dup4\n  iszero\n  iszero\n  mul\n  or\n  swap1\n  sstore\n  pop\n    /* \"simpleVoting.sol\":60:1263  contract SimpleVoting {... */\n  dataSize(sub_0)\n  dup1\n  dataOffset(sub_0)\n  0x00\n  codecopy\n  0x00\n  return\nstop\n\nsub_0: assembly {\n        /* \"simpleVoting.sol\":60:1263  contract SimpleVoting {... */\n      mstore(0x40, 0x80)\n      callvalue\n      dup1\n      iszero\n      tag_1\n      jumpi\n      revert(0x00, 0x00)\n    tag_1:\n      pop\n      jumpi(tag_2, lt(calldatasize, 0x04))\n      shr(0xe0, calldataload(0x00))\n      dup1\n      0x775a1d8f\n      gt\n      tag_11\n      jumpi\n      dup1\n      0x775a1d8f\n      eq\n      tag_7\n      jumpi\n      dup1\n      0x855ff681\n      eq\n      tag_8\n      jumpi\n      dup1\n      0xdf972163\n      eq\n      tag_9\n      jumpi\n      dup1\n      0xf851a440\n      eq\n      tag_10\n      jumpi\n      jump(tag_2)\n    tag_11:\n      dup1\n      0x0121b93f\n      eq\n      tag_3\n      jumpi\n      dup1\n      0x09eef43e\n      eq\n      tag_4\n      jumpi\n      dup1\n      0x0dc96015\n      eq\n      tag_5\n      jumpi\n      dup1\n      0x20949bb4\n      eq\n      tag_6\n      jumpi\n    tag_2:\n      revert(0x00, 0x00)\n        /* \"simpleVoting.sol\":580:983  function vote(uint _candidateId) public {... */\n    tag_3:\n      tag_12\n      0x04\n      dup1\n      calldatasize\n      sub\n      dup2\n      add\n      swap1\n      tag_13\n      swap2\n      swap1\n      tag_14\n      jump\t// in\n    tag_13:\n      tag_15\n      jump\t// in\n    tag_12:\n      stop\n        /* \"simpleVoting.sol\":219:259  mapping(address => bool) public hasVoted */\n    tag_4:\n      tag_16\n      0x04\n      dup1\n      calldatasize\n      sub\n      dup2\n      add\n      swap1\n      tag_17\n      swap2\n      swap1\n      tag_18\n      jump\t// in\n    tag_17:\n      tag_19\n      jump\t// in\n    tag_16:\n      mload(0x40)\n      tag_20\n      swap2\n      swap1\n      tag_21\n      jump\t// in\n    tag_20:\n      mload(0x40)\n      dup1\n      swap2\n      sub\n      swap1\n      return\n        /* \"simpleVoting.sol\":1009:1122  function getVotes() public view returns (uint, uint) {... */\n    tag_5:\n      tag_22\n      tag_23\n      jump\t// in\n    tag_22:\n      mload(0x40)\n      tag_24\n      swap3\n      swap2\n      swap1\n      tag_25\n      jump\t// in\n    tag_24:\n      mload(0x40)\n      dup1\n      swap2\n      sub\n      swap1\n      return\n        /* \"simpleVoting.sol\":190:210  bool public votingOn */\n    tag_6:\n      tag_26\n      tag_27\n      jump\t// in\n    tag_26:\n      mload(0x40)\n      tag_28\n      swap2\n      swap1\n      tag_21\n      jump\t// in\n    tag_28:\n      mload(0x40)\n      dup1\n      swap2\n      sub\n      swap1\n      return\n        /* \"simpleVoting.sol\":154:181  uint public candidate2Votes */\n    tag_7:\n      tag_29\n      tag_30\n      jump\t// in\n    tag_29:\n      mload(0x40)\n      tag_31\n      swap2\n      swap1\n      tag_32\n      jump\t// in\n    tag_31:\n      mload(0x40)\n      dup1\n      swap2\n      sub\n      swap1\n      return\n        /* \"simpleVoting.sol\":1170:1260  function toggleVoting(bool _status) public onlyAdmin {... */\n    tag_8:\n      tag_33\n      0x04\n      dup1\n      calldatasize\n      sub\n      dup2\n      add\n      swap1\n      tag_34\n      swap2\n      swap1\n      tag_35\n      jump\t// in\n    tag_34:\n      tag_36\n      jump\t// in\n    tag_33:\n      stop\n        /* \"simpleVoting.sol\":120:147  uint public candidate1Votes */\n    tag_9:\n      tag_37\n      tag_38\n      jump\t// in\n    tag_37:\n      mload(0x40)\n      tag_39\n      swap2\n      swap1\n      tag_32\n      jump\t// in\n    tag_39:\n      mload(0x40)\n      dup1\n      swap2\n      sub\n      swap1\n      return\n        /* \"simpleVoting.sol\":91:111  address public admin */\n    tag_10:\n      tag_40\n      tag_41\n      jump\t// in\n    tag_40:\n      mload(0x40)\n      tag_42\n      swap2\n      swap1\n      tag_43\n      jump\t// in\n    tag_42:\n      mload(0x40)\n      dup1\n      swap2\n      sub\n      swap1\n      return\n        /* \"simpleVoting.sol\":580:983  function vote(uint _candidateId) public {... */\n    tag_15:\n        /* \"simpleVoting.sol\":639:647  votingOn */\n      0x03\n      0x00\n      swap1\n      sload\n      swap1\n      0x0100\n      exp\n      swap1\n      div\n      0xff\n      and\n        /* \"simpleVoting.sol\":631:665  require(votingOn, \"Voting is OFF\") */\n      tag_45\n      jumpi\n      mload(0x40)\n      0x08c379a000000000000000000000000000000000000000000000000000000000\n      dup2\n      mstore\n      0x04\n      add\n      tag_46\n      swap1\n      tag_47\n      jump\t// in\n    tag_46:\n      mload(0x40)\n      dup1\n      swap2\n      sub\n      swap1\n      revert\n    tag_45:\n        /* \"simpleVoting.sol\":685:693  hasVoted */\n      0x04\n        /* \"simpleVoting.sol\":685:705  hasVoted[msg.sender] */\n      0x00\n        /* \"simpleVoting.sol\":694:704  msg.sender */\n      caller\n        /* \"simpleVoting.sol\":685:705  hasVoted[msg.sender] */\n      0xffffffffffffffffffffffffffffffffffffffff\n      and\n      0xffffffffffffffffffffffffffffffffffffffff\n      and\n      dup2\n      mstore\n      0x20\n      add\n      swap1\n      dup2\n      mstore\n      0x20\n      add\n      0x00\n      keccak256\n      0x00\n      swap1\n      sload\n      swap1\n      0x0100\n      exp\n      swap1\n      div\n      0xff\n      and\n        /* \"simpleVoting.sol\":684:705  !hasVoted[msg.sender] */\n      iszero\n        /* \"simpleVoting.sol\":676:727  require(!hasVoted[msg.sender], \"You already voted\") */\n      tag_48\n      jumpi\n      mload(0x40)\n      0x08c379a000000000000000000000000000000000000000000000000000000000\n      dup2\n      mstore\n      0x04\n      add\n      tag_49\n      swap1\n      tag_50\n      jump\t// in\n    tag_49:\n      mload(0x40)\n      dup1\n      swap2\n      sub\n      swap1\n      revert\n    tag_48:\n        /* \"simpleVoting.sol\":762:763  1 */\n      0x01\n        /* \"simpleVoting.sol\":746:758  _candidateId */\n      dup2\n        /* \"simpleVoting.sol\":746:763  _candidateId == 1 */\n      eq\n        /* \"simpleVoting.sol\":746:784  _candidateId == 1 || _candidateId == 2 */\n      dup1\n      tag_51\n      jumpi\n      pop\n        /* \"simpleVoting.sol\":783:784  2 */\n      0x02\n        /* \"simpleVoting.sol\":767:779  _candidateId */\n      dup2\n        /* \"simpleVoting.sol\":767:784  _candidateId == 2 */\n      eq\n        /* \"simpleVoting.sol\":746:784  _candidateId == 1 || _candidateId == 2 */\n    tag_51:\n        /* \"simpleVoting.sol\":738:806  require(_candidateId == 1 || _candidateId == 2, \"Invalid candidate\") */\n      tag_52\n      jumpi\n      mload(0x40)\n      0x08c379a000000000000000000000000000000000000000000000000000000000\n      dup2\n      mstore\n      0x04\n      add\n      tag_53\n      swap1\n      tag_54\n      jump\t// in\n    tag_53:\n      mload(0x40)\n      dup1\n      swap2\n      sub\n      swap1\n      revert\n    tag_52:\n        /* \"simpleVoting.sol\":842:846  true */\n      0x01\n        /* \"simpleVoting.sol\":819:827  hasVoted */\n      0x04\n        /* \"simpleVoting.sol\":819:839  hasVoted[msg.sender] */\n      0x00\n        /* \"simpleVoting.sol\":828:838  msg.sender */\n      caller\n        /* \"simpleVoting.sol\":819:839  hasVoted[msg.sender] */\n      0xffffffffffffffffffffffffffffffffffffffff\n      and\n      0xffffffffffffffffffffffffffffffffffffffff\n      and\n      dup2\n      mstore\n      0x20\n      add\n      swap1\n      dup2\n      mstore\n      0x20\n      add\n      0x00\n      keccak256\n      0x00\n        /* \"simpleVoting.sol\":819:846  hasVoted[msg.sender] = true */\n      0x0100\n      exp\n      dup2\n      sload\n      dup2\n      0xff\n      mul\n      not\n      and\n      swap1\n      dup4\n      iszero\n      iszero\n      mul\n      or\n      swap1\n      sstore\n      pop\n        /* \"simpleVoting.sol\":879:880  1 */\n      0x01\n        /* \"simpleVoting.sol\":863:875  _candidateId */\n      dup2\n        /* \"simpleVoting.sol\":863:880  _candidateId == 1 */\n      sub\n        /* \"simpleVoting.sol\":859:976  if (_candidateId == 1) {... */\n      tag_55\n      jumpi\n        /* \"simpleVoting.sol\":897:912  candidate1Votes */\n      0x01\n      0x00\n        /* \"simpleVoting.sol\":897:914  candidate1Votes++ */\n      dup2\n      sload\n      dup1\n      swap3\n      swap2\n      swap1\n      tag_56\n      swap1\n      tag_57\n      jump\t// in\n    tag_56:\n      swap2\n      swap1\n      pop\n      sstore\n      pop\n        /* \"simpleVoting.sol\":859:976  if (_candidateId == 1) {... */\n      jump(tag_58)\n    tag_55:\n        /* \"simpleVoting.sol\":947:962  candidate2Votes */\n      0x02\n      0x00\n        /* \"simpleVoting.sol\":947:964  candidate2Votes++ */\n      dup2\n      sload\n      dup1\n      swap3\n      swap2\n      swap1\n      tag_59\n      swap1\n      tag_57\n      jump\t// in\n    tag_59:\n      swap2\n      swap1\n      pop\n      sstore\n      pop\n        /* \"simpleVoting.sol\":859:976  if (_candidateId == 1) {... */\n    tag_58:\n        /* \"simpleVoting.sol\":580:983  function vote(uint _candidateId) public {... */\n      pop\n      jump\t// out\n        /* \"simpleVoting.sol\":219:259  mapping(address => bool) public hasVoted */\n    tag_19:\n      mstore(0x20, 0x04)\n      dup1\n      0x00\n      mstore\n      keccak256(0x00, 0x40)\n      0x00\n      swap2\n      pop\n      sload\n      swap1\n      0x0100\n      exp\n      swap1\n      div\n      0xff\n      and\n      dup2\n      jump\t// out\n        /* \"simpleVoting.sol\":1009:1122  function getVotes() public view returns (uint, uint) {... */\n    tag_23:\n        /* \"simpleVoting.sol\":1050:1054  uint */\n      0x00\n        /* \"simpleVoting.sol\":1056:1060  uint */\n      0x00\n        /* \"simpleVoting.sol\":1081:1096  candidate1Votes */\n      sload(0x01)\n        /* \"simpleVoting.sol\":1098:1113  candidate2Votes */\n      sload(0x02)\n        /* \"simpleVoting.sol\":1073:1114  return (candidate1Votes, candidate2Votes) */\n      swap2\n      pop\n      swap2\n      pop\n        /* \"simpleVoting.sol\":1009:1122  function getVotes() public view returns (uint, uint) {... */\n      swap1\n      swap2\n      jump\t// out\n        /* \"simpleVoting.sol\":190:210  bool public votingOn */\n    tag_27:\n      0x03\n      0x00\n      swap1\n      sload\n      swap1\n      0x0100\n      exp\n      swap1\n      div\n      0xff\n      and\n      dup2\n      jump\t// out\n        /* \"simpleVoting.sol\":154:181  uint public candidate2Votes */\n    tag_30:\n      sload(0x02)\n      dup2\n      jump\t// out\n        /* \"simpleVoting.sol\":1170:1260  function toggleVoting(bool _status) public onlyAdmin {... */\n    tag_36:\n        /* \"simpleVoting.sol\":502:507  admin */\n      0x00\n      0x00\n      swap1\n      sload\n      swap1\n      0x0100\n      exp\n      swap1\n      div\n      0xffffffffffffffffffffffffffffffffffffffff\n      and\n        /* \"simpleVoting.sol\":488:507  msg.sender == admin */\n      0xffffffffffffffffffffffffffffffffffffffff\n      and\n        /* \"simpleVoting.sol\":488:498  msg.sender */\n      caller\n        /* \"simpleVoting.sol\":488:507  msg.sender == admin */\n      0xffffffffffffffffffffffffffffffffffffffff\n      and\n      eq\n        /* \"simpleVoting.sol\":480:530  require(msg.sender == admin, \"Only admin allowed\") */\n      tag_62\n      jumpi\n      mload(0x40)\n      0x08c379a000000000000000000000000000000000000000000000000000000000\n      dup2\n      mstore\n      0x04\n      add\n      tag_63\n      swap1\n      tag_64\n      jump\t// in\n    tag_63:\n      mload(0x40)\n      dup1\n      swap2\n      sub\n      swap1\n      revert\n    tag_62:\n        /* \"simpleVoting.sol\":1245:1252  _status */\n      dup1\n        /* \"simpleVoting.sol\":1234:1242  votingOn */\n      0x03\n      0x00\n        /* \"simpleVoting.sol\":1234:1252  votingOn = _status */\n      0x0100\n      exp\n      dup2\n      sload\n      dup2\n      0xff\n      mul\n      not\n      and\n      swap1\n      dup4\n      iszero\n      iszero\n      mul\n      or\n      swap1\n      sstore\n      pop\n        /* \"simpleVoting.sol\":1170:1260  function toggleVoting(bool _status) public onlyAdmin {... */\n      pop\n      jump\t// out\n        /* \"simpleVoting.sol\":120:147  uint public candidate1Votes */\n    tag_38:\n      sload(0x01)\n      dup2\n      jump\t// out\n        /* \"simpleVoting.sol\":91:111  address public admin */\n    tag_41:\n      0x00\n      0x00\n      swap1\n      sload\n      swap1\n      0x0100\n      exp\n      swap1\n      div\n      0xffffffffffffffffffffffffffffffffffffffff\n      and\n      dup2\n      jump\t// out\n        /* \"#utility.yul\":88:205   */\n    tag_67:\n        /* \"#utility.yul\":197:198   */\n      0x00\n        /* \"#utility.yul\":194:195   */\n      0x00\n        /* \"#utility.yul\":187:199   */\n      revert\n        /* \"#utility.yul\":334:411   */\n    tag_69:\n        /* \"#utility.yul\":371:378   */\n      0x00\n        /* \"#utility.yul\":400:405   */\n      dup2\n        /* \"#utility.yul\":389:405   */\n      swap1\n      pop\n        /* \"#utility.yul\":334:411   */\n      swap2\n      swap1\n      pop\n      jump\t// out\n        /* \"#utility.yul\":417:539   */\n    tag_70:\n        /* \"#utility.yul\":490:514   */\n      tag_98\n        /* \"#utility.yul\":508:513   */\n      dup2\n        /* \"#utility.yul\":490:514   */\n      tag_69\n      jump\t// in\n    tag_98:\n        /* \"#utility.yul\":483:488   */\n      dup2\n        /* \"#utility.yul\":480:515   */\n      eq\n        /* \"#utility.yul\":470:533   */\n      tag_99\n      jumpi\n        /* \"#utility.yul\":529:530   */\n      0x00\n        /* \"#utility.yul\":526:527   */\n      0x00\n        /* \"#utility.yul\":519:531   */\n      revert\n        /* \"#utility.yul\":470:533   */\n    tag_99:\n        /* \"#utility.yul\":417:539   */\n      pop\n      jump\t// out\n        /* \"#utility.yul\":545:684   */\n    tag_71:\n        /* \"#utility.yul\":591:596   */\n      0x00\n        /* \"#utility.yul\":629:635   */\n      dup2\n        /* \"#utility.yul\":616:636   */\n      calldataload\n        /* \"#utility.yul\":607:636   */\n      swap1\n      pop\n        /* \"#utility.yul\":645:678   */\n      tag_101\n        /* \"#utility.yul\":672:677   */\n      dup2\n        /* \"#utility.yul\":645:678   */\n      tag_70\n      jump\t// in\n    tag_101:\n        /* \"#utility.yul\":545:684   */\n      swap3\n      swap2\n      pop\n      pop\n      jump\t// out\n        /* \"#utility.yul\":690:1019   */\n    tag_14:\n        /* \"#utility.yul\":749:755   */\n      0x00\n        /* \"#utility.yul\":798:800   */\n      0x20\n        /* \"#utility.yul\":786:795   */\n      dup3\n        /* \"#utility.yul\":777:784   */\n      dup5\n        /* \"#utility.yul\":773:796   */\n      sub\n        /* \"#utility.yul\":769:801   */\n      slt\n        /* \"#utility.yul\":766:885   */\n      iszero\n      tag_103\n      jumpi\n        /* \"#utility.yul\":804:883   */\n      tag_104\n      tag_67\n      jump\t// in\n    tag_104:\n        /* \"#utility.yul\":766:885   */\n    tag_103:\n        /* \"#utility.yul\":924:925   */\n      0x00\n        /* \"#utility.yul\":949:1002   */\n      tag_105\n        /* \"#utility.yul\":994:1001   */\n      dup5\n        /* \"#utility.yul\":985:991   */\n      dup3\n        /* \"#utility.yul\":974:983   */\n      dup6\n        /* \"#utility.yul\":970:992   */\n      add\n        /* \"#utility.yul\":949:1002   */\n      tag_71\n      jump\t// in\n    tag_105:\n        /* \"#utility.yul\":939:1002   */\n      swap2\n      pop\n        /* \"#utility.yul\":895:1012   */\n      pop\n        /* \"#utility.yul\":690:1019   */\n      swap3\n      swap2\n      pop\n      pop\n      jump\t// out\n        /* \"#utility.yul\":1025:1151   */\n    tag_72:\n        /* \"#utility.yul\":1062:1069   */\n      0x00\n        /* \"#utility.yul\":1102:1144   */\n      0xffffffffffffffffffffffffffffffffffffffff\n        /* \"#utility.yul\":1095:1100   */\n      dup3\n        /* \"#utility.yul\":1091:1145   */\n      and\n        /* \"#utility.yul\":1080:1145   */\n      swap1\n      pop\n        /* \"#utility.yul\":1025:1151   */\n      swap2\n      swap1\n      pop\n      jump\t// out\n        /* \"#utility.yul\":1157:1253   */\n    tag_73:\n        /* \"#utility.yul\":1194:1201   */\n      0x00\n        /* \"#utility.yul\":1223:1247   */\n      tag_108\n        /* \"#utility.yul\":1241:1246   */\n      dup3\n        /* \"#utility.yul\":1223:1247   */\n      tag_72\n      jump\t// in\n    tag_108:\n        /* \"#utility.yul\":1212:1247   */\n      swap1\n      pop\n        /* \"#utility.yul\":1157:1253   */\n      swap2\n      swap1\n      pop\n      jump\t// out\n        /* \"#utility.yul\":1259:1381   */\n    tag_74:\n        /* \"#utility.yul\":1332:1356   */\n      tag_110\n        /* \"#utility.yul\":1350:1355   */\n      dup2\n        /* \"#utility.yul\":1332:1356   */\n      tag_73\n      jump\t// in\n    tag_110:\n        /* \"#utility.yul\":1325:1330   */\n      dup2\n        /* \"#utility.yul\":1322:1357   */\n      eq\n        /* \"#utility.yul\":1312:1375   */\n      tag_111\n      jumpi\n        /* \"#utility.yul\":1371:1372   */\n      0x00\n        /* \"#utility.yul\":1368:1369   */\n      0x00\n        /* \"#utility.yul\":1361:1373   */\n      revert\n        /* \"#utility.yul\":1312:1375   */\n    tag_111:\n        /* \"#utility.yul\":1259:1381   */\n      pop\n      jump\t// out\n        /* \"#utility.yul\":1387:1526   */\n    tag_75:\n        /* \"#utility.yul\":1433:1438   */\n      0x00\n        /* \"#utility.yul\":1471:1477   */\n      dup2\n        /* \"#utility.yul\":1458:1478   */\n      calldataload\n        /* \"#utility.yul\":1449:1478   */\n      swap1\n      pop\n        /* \"#utility.yul\":1487:1520   */\n      tag_113\n        /* \"#utility.yul\":1514:1519   */\n      dup2\n        /* \"#utility.yul\":1487:1520   */\n      tag_74\n      jump\t// in\n    tag_113:\n        /* \"#utility.yul\":1387:1526   */\n      swap3\n      swap2\n      pop\n      pop\n      jump\t// out\n        /* \"#utility.yul\":1532:1861   */\n    tag_18:\n        /* \"#utility.yul\":1591:1597   */\n      0x00\n        /* \"#utility.yul\":1640:1642   */\n      0x20\n        /* \"#utility.yul\":1628:1637   */\n      dup3\n        /* \"#utility.yul\":1619:1626   */\n      dup5\n        /* \"#utility.yul\":1615:1638   */\n      sub\n        /* \"#utility.yul\":1611:1643   */\n      slt\n        /* \"#utility.yul\":1608:1727   */\n      iszero\n      tag_115\n      jumpi\n        /* \"#utility.yul\":1646:1725   */\n      tag_116\n      tag_67\n      jump\t// in\n    tag_116:\n        /* \"#utility.yul\":1608:1727   */\n    tag_115:\n        /* \"#utility.yul\":1766:1767   */\n      0x00\n        /* \"#utility.yul\":1791:1844   */\n      tag_117\n        /* \"#utility.yul\":1836:1843   */\n      dup5\n        /* \"#utility.yul\":1827:1833   */\n      dup3\n        /* \"#utility.yul\":1816:1825   */\n      dup6\n        /* \"#utility.yul\":1812:1834   */\n      add\n        /* \"#utility.yul\":1791:1844   */\n      tag_75\n      jump\t// in\n    tag_117:\n        /* \"#utility.yul\":1781:1844   */\n      swap2\n      pop\n        /* \"#utility.yul\":1737:1854   */\n      pop\n        /* \"#utility.yul\":1532:1861   */\n      swap3\n      swap2\n      pop\n      pop\n      jump\t// out\n        /* \"#utility.yul\":1867:1957   */\n    tag_76:\n        /* \"#utility.yul\":1901:1908   */\n      0x00\n        /* \"#utility.yul\":1944:1949   */\n      dup2\n        /* \"#utility.yul\":1937:1950   */\n      iszero\n        /* \"#utility.yul\":1930:1951   */\n      iszero\n        /* \"#utility.yul\":1919:1951   */\n      swap1\n      pop\n        /* \"#utility.yul\":1867:1957   */\n      swap2\n      swap1\n      pop\n      jump\t// out\n        /* \"#utility.yul\":1963:2072   */\n    tag_77:\n        /* \"#utility.yul\":2044:2065   */\n      tag_120\n        /* \"#utility.yul\":2059:2064   */\n      dup2\n        /* \"#utility.yul\":2044:2065   */\n      tag_76\n      jump\t// in\n    tag_120:\n        /* \"#utility.yul\":2039:2042   */\n      dup3\n        /* \"#utility.yul\":2032:2066   */\n      mstore\n        /* \"#utility.yul\":1963:2072   */\n      pop\n      pop\n      jump\t// out\n        /* \"#utility.yul\":2078:2288   */\n    tag_21:\n        /* \"#utility.yul\":2165:2169   */\n      0x00\n        /* \"#utility.yul\":2203:2205   */\n      0x20\n        /* \"#utility.yul\":2192:2201   */\n      dup3\n        /* \"#utility.yul\":2188:2206   */\n      add\n        /* \"#utility.yul\":2180:2206   */\n      swap1\n      pop\n        /* \"#utility.yul\":2216:2281   */\n      tag_122\n        /* \"#utility.yul\":2278:2279   */\n      0x00\n        /* \"#utility.yul\":2267:2276   */\n      dup4\n        /* \"#utility.yul\":2263:2280   */\n      add\n        /* \"#utility.yul\":2254:2260   */\n      dup5\n        /* \"#utility.yul\":2216:2281   */\n      tag_77\n      jump\t// in\n    tag_122:\n        /* \"#utility.yul\":2078:2288   */\n      swap3\n      swap2\n      pop\n      pop\n      jump\t// out\n        /* \"#utility.yul\":2294:2412   */\n    tag_78:\n        /* \"#utility.yul\":2381:2405   */\n      tag_124\n        /* \"#utility.yul\":2399:2404   */\n      dup2\n        /* \"#utility.yul\":2381:2405   */\n      tag_69\n      jump\t// in\n    tag_124:\n        /* \"#utility.yul\":2376:2379   */\n      dup3\n        /* \"#utility.yul\":2369:2406   */\n      mstore\n        /* \"#utility.yul\":2294:2412   */\n      pop\n      pop\n      jump\t// out\n        /* \"#utility.yul\":2418:2750   */\n    tag_25:\n        /* \"#utility.yul\":2539:2543   */\n      0x00\n        /* \"#utility.yul\":2577:2579   */\n      0x40\n        /* \"#utility.yul\":2566:2575   */\n      dup3\n        /* \"#utility.yul\":2562:2580   */\n      add\n        /* \"#utility.yul\":2554:2580   */\n      swap1\n      pop\n        /* \"#utility.yul\":2590:2661   */\n      tag_126\n        /* \"#utility.yul\":2658:2659   */\n      0x00\n        /* \"#utility.yul\":2647:2656   */\n      dup4\n        /* \"#utility.yul\":2643:2660   */\n      add\n        /* \"#utility.yul\":2634:2640   */\n      dup6\n        /* \"#utility.yul\":2590:2661   */\n      tag_78\n      jump\t// in\n    tag_126:\n        /* \"#utility.yul\":2671:2743   */\n      tag_127\n        /* \"#utility.yul\":2739:2741   */\n      0x20\n        /* \"#utility.yul\":2728:2737   */\n      dup4\n        /* \"#utility.yul\":2724:2742   */\n      add\n        /* \"#utility.yul\":2715:2721   */\n      dup5\n        /* \"#utility.yul\":2671:2743   */\n      tag_78\n      jump\t// in\n    tag_127:\n        /* \"#utility.yul\":2418:2750   */\n      swap4\n      swap3\n      pop\n      pop\n      pop\n      jump\t// out\n        /* \"#utility.yul\":2756:2978   */\n    tag_32:\n        /* \"#utility.yul\":2849:2853   */\n      0x00\n        /* \"#utility.yul\":2887:2889   */\n      0x20\n        /* \"#utility.yul\":2876:2885   */\n      dup3\n        /* \"#utility.yul\":2872:2890   */\n      add\n        /* \"#utility.yul\":2864:2890   */\n      swap1\n      pop\n        /* \"#utility.yul\":2900:2971   */\n      tag_129\n        /* \"#utility.yul\":2968:2969   */\n      0x00\n        /* \"#utility.yul\":2957:2966   */\n      dup4\n        /* \"#utility.yul\":2953:2970   */\n      add\n        /* \"#utility.yul\":2944:2950   */\n      dup5\n        /* \"#utility.yul\":2900:2971   */\n      tag_78\n      jump\t// in\n    tag_129:\n        /* \"#utility.yul\":2756:2978   */\n      swap3\n      swap2\n      pop\n      pop\n      jump\t// out\n        /* \"#utility.yul\":2984:3100   */\n    tag_79:\n        /* \"#utility.yul\":3054:3075   */\n      tag_131\n        /* \"#utility.yul\":3069:3074   */\n      dup2\n        /* \"#utility.yul\":3054:3075   */\n      tag_76\n      jump\t// in\n    tag_131:\n        /* \"#utility.yul\":3047:3052   */\n      dup2\n        /* \"#utility.yul\":3044:3076   */\n      eq\n        /* \"#utility.yul\":3034:3094   */\n      tag_132\n      jumpi\n        /* \"#utility.yul\":3090:3091   */\n      0x00\n        /* \"#utility.yul\":3087:3088   */\n      0x00\n        /* \"#utility.yul\":3080:3092   */\n      revert\n        /* \"#utility.yul\":3034:3094   */\n    tag_132:\n        /* \"#utility.yul\":2984:3100   */\n      pop\n      jump\t// out\n        /* \"#utility.yul\":3106:3239   */\n    tag_80:\n        /* \"#utility.yul\":3149:3154   */\n      0x00\n        /* \"#utility.yul\":3187:3193   */\n      dup2\n        /* \"#utility.yul\":3174:3194   */\n      calldataload\n        /* \"#utility.yul\":3165:3194   */\n      swap1\n      pop\n        /* \"#utility.yul\":3203:3233   */\n      tag_134\n        /* \"#utility.yul\":3227:3232   */\n      dup2\n        /* \"#utility.yul\":3203:3233   */\n      tag_79\n      jump\t// in\n    tag_134:\n        /* \"#utility.yul\":3106:3239   */\n      swap3\n      swap2\n      pop\n      pop\n      jump\t// out\n        /* \"#utility.yul\":3245:3568   */\n    tag_35:\n        /* \"#utility.yul\":3301:3307   */\n      0x00\n        /* \"#utility.yul\":3350:3352   */\n      0x20\n        /* \"#utility.yul\":3338:3347   */\n      dup3\n        /* \"#utility.yul\":3329:3336   */\n      dup5\n        /* \"#utility.yul\":3325:3348   */\n      sub\n        /* \"#utility.yul\":3321:3353   */\n      slt\n        /* \"#utility.yul\":3318:3437   */\n      iszero\n      tag_136\n      jumpi\n        /* \"#utility.yul\":3356:3435   */\n      tag_137\n      tag_67\n      jump\t// in\n    tag_137:\n        /* \"#utility.yul\":3318:3437   */\n    tag_136:\n        /* \"#utility.yul\":3476:3477   */\n      0x00\n        /* \"#utility.yul\":3501:3551   */\n      tag_138\n        /* \"#utility.yul\":3543:3550   */\n      dup5\n        /* \"#utility.yul\":3534:3540   */\n      dup3\n        /* \"#utility.yul\":3523:3532   */\n      dup6\n        /* \"#utility.yul\":3519:3541   */\n      add\n        /* \"#utility.yul\":3501:3551   */\n      tag_80\n      jump\t// in\n    tag_138:\n        /* \"#utility.yul\":3491:3551   */\n      swap2\n      pop\n        /* \"#utility.yul\":3447:3561   */\n      pop\n        /* \"#utility.yul\":3245:3568   */\n      swap3\n      swap2\n      pop\n      pop\n      jump\t// out\n        /* \"#utility.yul\":3574:3692   */\n    tag_81:\n        /* \"#utility.yul\":3661:3685   */\n      tag_140\n        /* \"#utility.yul\":3679:3684   */\n      dup2\n        /* \"#utility.yul\":3661:3685   */\n      tag_73\n      jump\t// in\n    tag_140:\n        /* \"#utility.yul\":3656:3659   */\n      dup3\n        /* \"#utility.yul\":3649:3686   */\n      mstore\n        /* \"#utility.yul\":3574:3692   */\n      pop\n      pop\n      jump\t// out\n        /* \"#utility.yul\":3698:3920   */\n    tag_43:\n        /* \"#utility.yul\":3791:3795   */\n      0x00\n        /* \"#utility.yul\":3829:3831   */\n      0x20\n        /* \"#utility.yul\":3818:3827   */\n      dup3\n        /* \"#utility.yul\":3814:3832   */\n      add\n        /* \"#utility.yul\":3806:3832   */\n      swap1\n      pop\n        /* \"#utility.yul\":3842:3913   */\n      tag_142\n        /* \"#utility.yul\":3910:3911   */\n      0x00\n        /* \"#utility.yul\":3899:3908   */\n      dup4\n        /* \"#utility.yul\":3895:3912   */\n      add\n        /* \"#utility.yul\":3886:3892   */\n      dup5\n        /* \"#utility.yul\":3842:3913   */\n      tag_81\n      jump\t// in\n    tag_142:\n        /* \"#utility.yul\":3698:3920   */\n      swap3\n      swap2\n      pop\n      pop\n      jump\t// out\n        /* \"#utility.yul\":3926:4095   */\n    tag_82:\n        /* \"#utility.yul\":4010:4021   */\n      0x00\n        /* \"#utility.yul\":4044:4050   */\n      dup3\n        /* \"#utility.yul\":4039:4042   */\n      dup3\n        /* \"#utility.yul\":4032:4051   */\n      mstore\n        /* \"#utility.yul\":4084:4088   */\n      0x20\n        /* \"#utility.yul\":4079:4082   */\n      dup3\n        /* \"#utility.yul\":4075:4089   */\n      add\n        /* \"#utility.yul\":4060:4089   */\n      swap1\n      pop\n        /* \"#utility.yul\":3926:4095   */\n      swap3\n      swap2\n      pop\n      pop\n      jump\t// out\n        /* \"#utility.yul\":4101:4264   */\n    tag_83:\n        /* \"#utility.yul\":4241:4256   */\n      0x566f74696e67206973204f464600000000000000000000000000000000000000\n        /* \"#utility.yul\":4237:4238   */\n      0x00\n        /* \"#utility.yul\":4229:4235   */\n      dup3\n        /* \"#utility.yul\":4225:4239   */\n      add\n        /* \"#utility.yul\":4218:4257   */\n      mstore\n        /* \"#utility.yul\":4101:4264   */\n      pop\n      jump\t// out\n        /* \"#utility.yul\":4270:4636   */\n    tag_84:\n        /* \"#utility.yul\":4412:4415   */\n      0x00\n        /* \"#utility.yul\":4433:4500   */\n      tag_146\n        /* \"#utility.yul\":4497:4499   */\n      0x0d\n        /* \"#utility.yul\":4492:4495   */\n      dup4\n        /* \"#utility.yul\":4433:4500   */\n      tag_82\n      jump\t// in\n    tag_146:\n        /* \"#utility.yul\":4426:4500   */\n      swap2\n      pop\n        /* \"#utility.yul\":4509:4602   */\n      tag_147\n        /* \"#utility.yul\":4598:4601   */\n      dup3\n        /* \"#utility.yul\":4509:4602   */\n      tag_83\n      jump\t// in\n    tag_147:\n        /* \"#utility.yul\":4627:4629   */\n      0x20\n        /* \"#utility.yul\":4622:4625   */\n      dup3\n        /* \"#utility.yul\":4618:4630   */\n      add\n        /* \"#utility.yul\":4611:4630   */\n      swap1\n      pop\n        /* \"#utility.yul\":4270:4636   */\n      swap2\n      swap1\n      pop\n      jump\t// out\n        /* \"#utility.yul\":4642:5061   */\n    tag_47:\n        /* \"#utility.yul\":4808:4812   */\n      0x00\n        /* \"#utility.yul\":4846:4848   */\n      0x20\n        /* \"#utility.yul\":4835:4844   */\n      dup3\n        /* \"#utility.yul\":4831:4849   */\n      add\n        /* \"#utility.yul\":4823:4849   */\n      swap1\n      pop\n        /* \"#utility.yul\":4895:4904   */\n      dup2\n        /* \"#utility.yul\":4889:4893   */\n      dup2\n        /* \"#utility.yul\":4885:4905   */\n      sub\n        /* \"#utility.yul\":4881:4882   */\n      0x00\n        /* \"#utility.yul\":4870:4879   */\n      dup4\n        /* \"#utility.yul\":4866:4883   */\n      add\n        /* \"#utility.yul\":4859:4906   */\n      mstore\n        /* \"#utility.yul\":4923:5054   */\n      tag_149\n        /* \"#utility.yul\":5049:5053   */\n      dup2\n        /* \"#utility.yul\":4923:5054   */\n      tag_84\n      jump\t// in\n    tag_149:\n        /* \"#utility.yul\":4915:5054   */\n      swap1\n      pop\n        /* \"#utility.yul\":4642:5061   */\n      swap2\n      swap1\n      pop\n      jump\t// out\n        /* \"#utility.yul\":5067:5234   */\n    tag_85:\n        /* \"#utility.yul\":5207:5226   */\n      0x596f7520616c726561647920766f746564000000000000000000000000000000\n        /* \"#utility.yul\":5203:5204   */\n      0x00\n        /* \"#utility.yul\":5195:5201   */\n      dup3\n        /* \"#utility.yul\":5191:5205   */\n      add\n        /* \"#utility.yul\":5184:5227   */\n      mstore\n        /* \"#utility.yul\":5067:5234   */\n      pop\n      jump\t// out\n        /* \"#utility.yul\":5240:5606   */\n    tag_86:\n        /* \"#utility.yul\":5382:5385   */\n      0x00\n        /* \"#utility.yul\":5403:5470   */\n      tag_152\n        /* \"#utility.yul\":5467:5469   */\n      0x11\n        /* \"#utility.yul\":5462:5465   */\n      dup4\n        /* \"#utility.yul\":5403:5470   */\n      tag_82\n      jump\t// in\n    tag_152:\n        /* \"#utility.yul\":5396:5470   */\n      swap2\n      pop\n        /* \"#utility.yul\":5479:5572   */\n      tag_153\n        /* \"#utility.yul\":5568:5571   */\n      dup3\n        /* \"#utility.yul\":5479:5572   */\n      tag_85\n      jump\t// in\n    tag_153:\n        /* \"#utility.yul\":5597:5599   */\n      0x20\n        /* \"#utility.yul\":5592:5595   */\n      dup3\n        /* \"#utility.yul\":5588:5600   */\n      add\n        /* \"#utility.yul\":5581:5600   */\n      swap1\n      pop\n        /* \"#utility.yul\":5240:5606   */\n      swap2\n      swap1\n      pop\n      jump\t// out\n        /* \"#utility.yul\":5612:6031   */\n    tag_50:\n        /* \"#utility.yul\":5778:5782   */\n      0x00\n        /* \"#utility.yul\":5816:5818   */\n      0x20\n        /* \"#utility.yul\":5805:5814   */\n      dup3\n        /* \"#utility.yul\":5801:5819   */\n      add\n        /* \"#utility.yul\":5793:5819   */\n      swap1\n      pop\n        /* \"#utility.yul\":5865:5874   */\n      dup2\n        /* \"#utility.yul\":5859:5863   */\n      dup2\n        /* \"#utility.yul\":5855:5875   */\n      sub\n        /* \"#utility.yul\":5851:5852   */\n      0x00\n        /* \"#utility.yul\":5840:5849   */\n      dup4\n        /* \"#utility.yul\":5836:5853   */\n      add\n        /* \"#utility.yul\":5829:5876   */\n      mstore\n        /* \"#utility.yul\":5893:6024   */\n      tag_155\n        /* \"#utility.yul\":6019:6023   */\n      dup2\n        /* \"#utility.yul\":5893:6024   */\n      tag_86\n      jump\t// in\n    tag_155:\n        /* \"#utility.yul\":5885:6024   */\n      swap1\n      pop\n        /* \"#utility.yul\":5612:6031   */\n      swap2\n      swap1\n      pop\n      jump\t// out\n        /* \"#utility.yul\":6037:6204   */\n    tag_87:\n        /* \"#utility.yul\":6177:6196   */\n      0x496e76616c69642063616e646964617465000000000000000000000000000000\n        /* \"#utility.yul\":6173:6174   */\n      0x00\n        /* \"#utility.yul\":6165:6171   */\n      dup3\n        /* \"#utility.yul\":6161:6175   */\n      add\n        /* \"#utility.yul\":6154:6197   */\n      mstore\n        /* \"#utility.yul\":6037:6204   */\n      pop\n      jump\t// out\n        /* \"#utility.yul\":6210:6576   */\n    tag_88:\n        /* \"#utility.yul\":6352:6355   */\n      0x00\n        /* \"#utility.yul\":6373:6440   */\n      tag_158\n        /* \"#utility.yul\":6437:6439   */\n      0x11\n        /* \"#utility.yul\":6432:6435   */\n      dup4\n        /* \"#utility.yul\":6373:6440   */\n      tag_82\n      jump\t// in\n    tag_158:\n        /* \"#utility.yul\":6366:6440   */\n      swap2\n      pop\n        /* \"#utility.yul\":6449:6542   */\n      tag_159\n        /* \"#utility.yul\":6538:6541   */\n      dup3\n        /* \"#utility.yul\":6449:6542   */\n      tag_87\n      jump\t// in\n    tag_159:\n        /* \"#utility.yul\":6567:6569   */\n      0x20\n        /* \"#utility.yul\":6562:6565   */\n      dup3\n        /* \"#utility.yul\":6558:6570   */\n      add\n        /* \"#utility.yul\":6551:6570   */\n      swap1\n      pop\n        /* \"#utility.yul\":6210:6576   */\n      swap2\n      swap1\n      pop\n      jump\t// out\n        /* \"#utility.yul\":6582:7001   */\n    tag_54:\n        /* \"#utility.yul\":6748:6752   */\n      0x00\n        /* \"#utility.yul\":6786:6788   */\n      0x20\n        /* \"#utility.yul\":6775:6784   */\n      dup3\n        /* \"#utility.yul\":6771:6789   */\n      add\n        /* \"#utility.yul\":6763:6789   */\n      swap1\n      pop\n        /* \"#utility.yul\":6835:6844   */\n      dup2\n        /* \"#utility.yul\":6829:6833   */\n      dup2\n        /* \"#utility.yul\":6825:6845   */\n      sub\n        /* \"#utility.yul\":6821:6822   */\n      0x00\n        /* \"#utility.yul\":6810:6819   */\n      dup4\n        /* \"#utility.yul\":6806:6823   */\n      add\n        /* \"#utility.yul\":6799:6846   */\n      mstore\n        /* \"#utility.yul\":6863:6994   */\n      tag_161\n        /* \"#utility.yul\":6989:6993   */\n      dup2\n        /* \"#utility.yul\":6863:6994   */\n      tag_88\n      jump\t// in\n    tag_161:\n        /* \"#utility.yul\":6855:6994   */\n      swap1\n      pop\n        /* \"#utility.yul\":6582:7001   */\n      swap2\n      swap1\n      pop\n      jump\t// out\n        /* \"#utility.yul\":7007:7187   */\n    tag_89:\n        /* \"#utility.yul\":7055:7132   */\n      0x4e487b7100000000000000000000000000000000000000000000000000000000\n        /* \"#utility.yul\":7052:7053   */\n      0x00\n        /* \"#utility.yul\":7045:7133   */\n      mstore\n        /* \"#utility.yul\":7152:7156   */\n      0x11\n        /* \"#utility.yul\":7149:7150   */\n      0x04\n        /* \"#utility.yul\":7142:7157   */\n      mstore\n        /* \"#utility.yul\":7176:7180   */\n      0x24\n        /* \"#utility.yul\":7173:7174   */\n      0x00\n        /* \"#utility.yul\":7166:7181   */\n      revert\n        /* \"#utility.yul\":7193:7426   */\n    tag_57:\n        /* \"#utility.yul\":7232:7235   */\n      0x00\n        /* \"#utility.yul\":7255:7279   */\n      tag_164\n        /* \"#utility.yul\":7273:7278   */\n      dup3\n        /* \"#utility.yul\":7255:7279   */\n      tag_69\n      jump\t// in\n    tag_164:\n        /* \"#utility.yul\":7246:7279   */\n      swap2\n      pop\n        /* \"#utility.yul\":7301:7367   */\n      0xffffffffffffffffffffffffffffffffffffffffffffffffffffffffffffffff\n        /* \"#utility.yul\":7294:7299   */\n      dup3\n        /* \"#utility.yul\":7291:7368   */\n      sub\n        /* \"#utility.yul\":7288:7391   */\n      tag_165\n      jumpi\n        /* \"#utility.yul\":7371:7389   */\n      tag_166\n      tag_89\n      jump\t// in\n    tag_166:\n        /* \"#utility.yul\":7288:7391   */\n    tag_165:\n        /* \"#utility.yul\":7418:7419   */\n      0x01\n        /* \"#utility.yul\":7411:7416   */\n      dup3\n        /* \"#utility.yul\":7407:7420   */\n      add\n        /* \"#utility.yul\":7400:7420   */\n      swap1\n      pop\n        /* \"#utility.yul\":7193:7426   */\n      swap2\n      swap1\n      pop\n      jump\t// out\n        /* \"#utility.yul\":7432:7600   */\n    tag_90:\n        /* \"#utility.yul\":7572:7592   */\n      0x4f6e6c792061646d696e20616c6c6f7765640000000000000000000000000000\n        /* \"#utility.yul\":7568:7569   */\n      0x00\n        /* \"#utility.yul\":7560:7566   */\n      dup3\n        /* \"#utility.yul\":7556:7570   */\n      add\n        /* \"#utility.yul\":7549:7593   */\n      mstore\n        /* \"#utility.yul\":7432:7600   */\n      pop\n      jump\t// out\n        /* \"#utility.yul\":7606:7972   */\n    tag_91:\n        /* \"#utility.yul\":7748:7751   */\n      0x00\n        /* \"#utility.yul\":7769:7836   */\n      tag_169\n        /* \"#utility.yul\":7833:7835   */\n      0x12\n        /* \"#utility.yul\":7828:7831   */\n      dup4\n        /* \"#utility.yul\":7769:7836   */\n      tag_82\n      jump\t// in\n    tag_169:\n        /* \"#utility.yul\":7762:7836   */\n      swap2\n      pop\n        /* \"#utility.yul\":7845:7938   */\n      tag_170\n        /* \"#utility.yul\":7934:7937   */\n      dup3\n        /* \"#utility.yul\":7845:7938   */\n      tag_90\n      jump\t// in\n    tag_170:\n        /* \"#utility.yul\":7963:7965   */\n      0x20\n        /* \"#utility.yul\":7958:7961   */\n      dup3\n        /* \"#utility.yul\":7954:7966   */\n      add\n        /* \"#utility.yul\":7947:7966   */\n      swap1\n      pop\n        /* \"#utility.yul\":7606:7972   */\n      swap2\n      swap1\n      pop\n      jump\t// out\n        /* \"#utility.yul\":7978:8397   */\n    tag_64:\n        /* \"#utility.yul\":8144:8148   */\n      0x00\n        /* \"#utility.yul\":8182:8184   */\n      0x20\n        /* \"#utility.yul\":8171:8180   */\n      dup3\n        /* \"#utility.yul\":8167:8185   */\n      add\n        /* \"#utility.yul\":8159:8185   */\n      swap1\n      pop\n        /* \"#utility.yul\":8231:8240   */\n      dup2\n        /* \"#utility.yul\":8225:8229   */\n      dup2\n        /* \"#utility.yul\":8221:8241   */\n      sub\n        /* \"#utility.yul\":8217:8218   */\n      0x00\n        /* \"#utility.yul\":8206:8215   */\n      dup4\n        /* \"#utility.yul\":8202:8219   */\n      add\n        /* \"#utility.yul\":8195:8242   */\n      mstore\n        /* \"#utility.yul\":8259:8390   */\n      tag_172\n        /* \"#utility.yul\":8385:8389   */\n      dup2\n        /* \"#utility.yul\":8259:8390   */\n      tag_91\n      jump\t// in\n    tag_172:\n        /* \"#utility.yul\":8251:8390   */\n      swap1\n      pop\n        /* \"#utility.yul\":7978:8397   */\n      swap2\n      swap1\n      pop\n      jump\t// out\n\n    auxdata: 0xa2646970667358221220e68bfb9e5685c997f2a3b3ac9efe21b9517e5293d98cdf369ff3cefeadaba3fe64736f6c634300081f0033\n}\n",
				"bytecode": {
					"linkReferences": {},
					"object": "6080604052348015600e575f5ffd5b50335f5f6101000a81548173ffffffffffffffffffffffffffffffffffffffff021916908373ffffffffffffffffffffffffffffffffffffffff160217905550600160035f6101000a81548160ff02191690831515021790555061089c806100755f395ff3fe608060405234801561000f575f5ffd5b5060043610610086575f3560e01c8063775a1d8f11610059578063775a1d8f14610113578063855ff68114610131578063df9721631461014d578063f851a4401461016b57610086565b80630121b93f1461008a57806309eef43e146100a65780630dc96015146100d657806320949bb4146100f5575b5f5ffd5b6100a4600480360381019061009f9190610493565b610189565b005b6100c060048036038101906100bb9190610518565b610343565b6040516100cd919061055d565b60405180910390f35b6100de610360565b6040516100ec929190610585565b60405180910390f35b6100fd610370565b60405161010a919061055d565b60405180910390f35b61011b610382565b60405161012891906105ac565b60405180910390f35b61014b600480360381019061014691906105ef565b610388565b005b610155610432565b60405161016291906105ac565b60405180910390f35b610173610438565b6040516101809190610629565b60405180910390f35b60035f9054906101000a900460ff166101d7576040517f08c379a00000000000000000000000000000000000000000000000000000000081526004016101ce9061069c565b60405180910390fd5b60045f3373ffffffffffffffffffffffffffffffffffffffff1673ffffffffffffffffffffffffffffffffffffffff1681526020019081526020015f205f9054906101000a900460ff1615610261576040517f08c379a000000000000000000000000000000000000000000000000000000000815260040161025890610704565b60405180910390fd5b60018114806102705750600281145b6102af576040517f08c379a00000000000000000000000000000000000000000000000000000000081526004016102a69061076c565b60405180910390fd5b600160045f3373ffffffffffffffffffffffffffffffffffffffff1673ffffffffffffffffffffffffffffffffffffffff1681526020019081526020015f205f6101000a81548160ff021916908315150217905550600181036103285760015f81548092919061031e906107b7565b9190505550610340565b60025f81548092919061033a906107b7565b91905055505b50565b6004602052805f5260405f205f915054906101000a900460ff1681565b5f5f600154600254915091509091565b60035f9054906101000a900460ff1681565b60025481565b5f5f9054906101000a900473ffffffffffffffffffffffffffffffffffffffff1673ffffffffffffffffffffffffffffffffffffffff163373ffffffffffffffffffffffffffffffffffffffff1614610416576040517f08c379a000000000000000000000000000000000000000000000000000000000815260040161040d90610848565b60405180910390fd5b8060035f6101000a81548160ff02191690831515021790555050565b60015481565b5f5f9054906101000a900473ffffffffffffffffffffffffffffffffffffffff1681565b5f5ffd5b5f819050919050565b61047281610460565b811461047c575f5ffd5b50565b5f8135905061048d81610469565b92915050565b5f602082840312156104a8576104a761045c565b5b5f6104b58482850161047f565b91505092915050565b5f73ffffffffffffffffffffffffffffffffffffffff82169050919050565b5f6104e7826104be565b9050919050565b6104f7816104dd565b8114610501575f5ffd5b50565b5f81359050610512816104ee565b92915050565b5f6020828403121561052d5761052c61045c565b5b5f61053a84828501610504565b91505092915050565b5f8115159050919050565b61055781610543565b82525050565b5f6020820190506105705f83018461054e565b92915050565b61057f81610460565b82525050565b5f6040820190506105985f830185610576565b6105a56020830184610576565b9392505050565b5f6020820190506105bf5f830184610576565b92915050565b6105ce81610543565b81146105d8575f5ffd5b50565b5f813590506105e9816105c5565b92915050565b5f602082840312156106045761060361045c565b5b5f610611848285016105db565b91505092915050565b610623816104dd565b82525050565b5f60208201905061063c5f83018461061a565b92915050565b5f82825260208201905092915050565b7f566f74696e67206973204f4646000000000000000000000000000000000000005f82015250565b5f610686600d83610642565b915061069182610652565b602082019050919050565b5f6020820190508181035f8301526106b38161067a565b9050919050565b7f596f7520616c726561647920766f7465640000000000000000000000000000005f82015250565b5f6106ee601183610642565b91506106f9826106ba565b602082019050919050565b5f6020820190508181035f83015261071b816106e2565b9050919050565b7f496e76616c69642063616e6469646174650000000000000000000000000000005f82015250565b5f610756601183610642565b915061076182610722565b602082019050919050565b5f6020820190508181035f8301526107838161074a565b9050919050565b7f4e487b71000000000000000000000000000000000000000000000000000000005f52601160045260245ffd5b5f6107c182610460565b91507fffffffffffffffffffffffffffffffffffffffffffffffffffffffffffffffff82036107f3576107f261078a565b5b600182019050919050565b7f4f6e6c792061646d696e20616c6c6f77656400000000000000000000000000005f82015250565b5f610832601283610642565b915061083d826107fe565b602082019050919050565b5f6020820190508181035f83015261085f81610826565b905091905056fea2646970667358221220e68bfb9e5685c997f2a3b3ac9efe21b9517e5293d98cdf369ff3cefeadaba3fe64736f6c634300081f0033",
					"opcodes": "PUSH1 0x80 PUSH1 0x40 MSTORE CALLVALUE DUP1 ISZERO PUSH1 0xE JUMPI PUSH0 PUSH0 REVERT JUMPDEST POP CALLER PUSH0 PUSH0 PUSH2 0x100 EXP DUP2 SLOAD DUP2 PUSH20 0xFFFFFFFFFFFFFFFFFFFFFFFFFFFFFFFFFFFFFFFF MUL NOT AND SWAP1 DUP4 PUSH20 0xFFFFFFFFFFFFFFFFFFFFFFFFFFFFFFFFFFFFFFFF AND MUL OR SWAP1 SSTORE POP PUSH1 0x1 PUSH1 0x3 PUSH0 PUSH2 0x100 EXP DUP2 SLOAD DUP2 PUSH1 0xFF MUL NOT AND SWAP1 DUP4 ISZERO ISZERO MUL OR SWAP1 SSTORE POP PUSH2 0x89C DUP1 PUSH2 0x75 PUSH0 CODECOPY PUSH0 RETURN INVALID PUSH1 0x80 PUSH1 0x40 MSTORE CALLVALUE DUP1 ISZERO PUSH2 0xF JUMPI PUSH0 PUSH0 REVERT JUMPDEST POP PUSH1 0x4 CALLDATASIZE LT PUSH2 0x86 JUMPI PUSH0 CALLDATALOAD PUSH1 0xE0 SHR DUP1 PUSH4 0x775A1D8F GT PUSH2 0x59 JUMPI DUP1 PUSH4 0x775A1D8F EQ PUSH2 0x113 JUMPI DUP1 PUSH4 0x855FF681 EQ PUSH2 0x131 JUMPI DUP1 PUSH4 0xDF972163 EQ PUSH2 0x14D JUMPI DUP1 PUSH4 0xF851A440 EQ PUSH2 0x16B JUMPI PUSH2 0x86 JUMP JUMPDEST DUP1 PUSH4 0x121B93F EQ PUSH2 0x8A JUMPI DUP1 PUSH4 0x9EEF43E EQ PUSH2 0xA6 JUMPI DUP1 PUSH4 0xDC96015 EQ PUSH2 0xD6 JUMPI DUP1 PUSH4 0x20949BB4 EQ PUSH2 0xF5 JUMPI JUMPDEST PUSH0 PUSH0 REVERT JUMPDEST PUSH2 0xA4 PUSH1 0x4 DUP1 CALLDATASIZE SUB DUP2 ADD SWAP1 PUSH2 0x9F SWAP2 SWAP1 PUSH2 0x493 JUMP JUMPDEST PUSH2 0x189 JUMP JUMPDEST STOP JUMPDEST PUSH2 0xC0 PUSH1 0x4 DUP1 CALLDATASIZE SUB DUP2 ADD SWAP1 PUSH2 0xBB SWAP2 SWAP1 PUSH2 0x518 JUMP JUMPDEST PUSH2 0x343 JUMP JUMPDEST PUSH1 0x40 MLOAD PUSH2 0xCD SWAP2 SWAP1 PUSH2 0x55D JUMP JUMPDEST PUSH1 0x40 MLOAD DUP1 SWAP2 SUB SWAP1 RETURN JUMPDEST PUSH2 0xDE PUSH2 0x360 JUMP JUMPDEST PUSH1 0x40 MLOAD PUSH2 0xEC SWAP3 SWAP2 SWAP1 PUSH2 0x585 JUMP JUMPDEST PUSH1 0x40 MLOAD DUP1 SWAP2 SUB SWAP1 RETURN JUMPDEST PUSH2 0xFD PUSH2 0x370 JUMP JUMPDEST PUSH1 0x40 MLOAD PUSH2 0x10A SWAP2 SWAP1 PUSH2 0x55D JUMP JUMPDEST PUSH1 0x40 MLOAD DUP1 SWAP2 SUB SWAP1 RETURN JUMPDEST PUSH2 0x11B PUSH2 0x382 JUMP JUMPDEST PUSH1 0x40 MLOAD PUSH2 0x128 SWAP2 SWAP1 PUSH2 0x5AC JUMP JUMPDEST PUSH1 0x40 MLOAD DUP1 SWAP2 SUB SWAP1 RETURN JUMPDEST PUSH2 0x14B PUSH1 0x4 DUP1 CALLDATASIZE SUB DUP2 ADD SWAP1 PUSH2 0x146 SWAP2 SWAP1 PUSH2 0x5EF JUMP JUMPDEST PUSH2 0x388 JUMP JUMPDEST STOP JUMPDEST PUSH2 0x155 PUSH2 0x432 JUMP JUMPDEST PUSH1 0x40 MLOAD PUSH2 0x162 SWAP2 SWAP1 PUSH2 0x5AC JUMP JUMPDEST PUSH1 0x40 MLOAD DUP1 SWAP2 SUB SWAP1 RETURN JUMPDEST PUSH2 0x173 PUSH2 0x438 JUMP JUMPDEST PUSH1 0x40 MLOAD PUSH2 0x180 SWAP2 SWAP1 PUSH2 0x629 JUMP JUMPDEST PUSH1 0x40 MLOAD DUP1 SWAP2 SUB SWAP1 RETURN JUMPDEST PUSH1 0x3 PUSH0 SWAP1 SLOAD SWAP1 PUSH2 0x100 EXP SWAP1 DIV PUSH1 0xFF AND PUSH2 0x1D7 JUMPI PUSH1 0x40 MLOAD PUSH32 0x8C379A000000000000000000000000000000000000000000000000000000000 DUP2 MSTORE PUSH1 0x4 ADD PUSH2 0x1CE SWAP1 PUSH2 0x69C JUMP JUMPDEST PUSH1 0x40 MLOAD DUP1 SWAP2 SUB SWAP1 REVERT JUMPDEST PUSH1 0x4 PUSH0 CALLER PUSH20 0xFFFFFFFFFFFFFFFFFFFFFFFFFFFFFFFFFFFFFFFF AND PUSH20 0xFFFFFFFFFFFFFFFFFFFFFFFFFFFFFFFFFFFFFFFF AND DUP2 MSTORE PUSH1 0x20 ADD SWAP1 DUP2 MSTORE PUSH1 0x20 ADD PUSH0 KECCAK256 PUSH0 SWAP1 SLOAD SWAP1 PUSH2 0x100 EXP SWAP1 DIV PUSH1 0xFF AND ISZERO PUSH2 0x261 JUMPI PUSH1 0x40 MLOAD PUSH32 0x8C379A000000000000000000000000000000000000000000000000000000000 DUP2 MSTORE PUSH1 0x4 ADD PUSH2 0x258 SWAP1 PUSH2 0x704 JUMP JUMPDEST PUSH1 0x40 MLOAD DUP1 SWAP2 SUB SWAP1 REVERT JUMPDEST PUSH1 0x1 DUP2 EQ DUP1 PUSH2 0x270 JUMPI POP PUSH1 0x2 DUP2 EQ JUMPDEST PUSH2 0x2AF JUMPI PUSH1 0x40 MLOAD PUSH32 0x8C379A000000000000000000000000000000000000000000000000000000000 DUP2 MSTORE PUSH1 0x4 ADD PUSH2 0x2A6 SWAP1 PUSH2 0x76C JUMP JUMPDEST PUSH1 0x40 MLOAD DUP1 SWAP2 SUB SWAP1 REVERT JUMPDEST PUSH1 0x1 PUSH1 0x4 PUSH0 CALLER PUSH20 0xFFFFFFFFFFFFFFFFFFFFFFFFFFFFFFFFFFFFFFFF AND PUSH20 0xFFFFFFFFFFFFFFFFFFFFFFFFFFFFFFFFFFFFFFFF AND DUP2 MSTORE PUSH1 0x20 ADD SWAP1 DUP2 MSTORE PUSH1 0x20 ADD PUSH0 KECCAK256 PUSH0 PUSH2 0x100 EXP DUP2 SLOAD DUP2 PUSH1 0xFF MUL NOT AND SWAP1 DUP4 ISZERO ISZERO MUL OR SWAP1 SSTORE POP PUSH1 0x1 DUP2 SUB PUSH2 0x328 JUMPI PUSH1 0x1 PUSH0 DUP2 SLOAD DUP1 SWAP3 SWAP2 SWAP1 PUSH2 0x31E SWAP1 PUSH2 0x7B7 JUMP JUMPDEST SWAP2 SWAP1 POP SSTORE POP PUSH2 0x340 JUMP JUMPDEST PUSH1 0x2 PUSH0 DUP2 SLOAD DUP1 SWAP3 SWAP2 SWAP1 PUSH2 0x33A SWAP1 PUSH2 0x7B7 JUMP JUMPDEST SWAP2 SWAP1 POP SSTORE POP JUMPDEST POP JUMP JUMPDEST PUSH1 0x4 PUSH1 0x20 MSTORE DUP1 PUSH0 MSTORE PUSH1 0x40 PUSH0 KECCAK256 PUSH0 SWAP2 POP SLOAD SWAP1 PUSH2 0x100 EXP SWAP1 DIV PUSH1 0xFF AND DUP2 JUMP JUMPDEST PUSH0 PUSH0 PUSH1 0x1 SLOAD PUSH1 0x2 SLOAD SWAP2 POP SWAP2 POP SWAP1 SWAP2 JUMP JUMPDEST PUSH1 0x3 PUSH0 SWAP1 SLOAD SWAP1 PUSH2 0x100 EXP SWAP1 DIV PUSH1 0xFF AND DUP2 JUMP JUMPDEST PUSH1 0x2 SLOAD DUP2 JUMP JUMPDEST PUSH0 PUSH0 SWAP1 SLOAD SWAP1 PUSH2 0x100 EXP SWAP1 DIV PUSH20 0xFFFFFFFFFFFFFFFFFFFFFFFFFFFFFFFFFFFFFFFF AND PUSH20 0xFFFFFFFFFFFFFFFFFFFFFFFFFFFFFFFFFFFFFFFF AND CALLER PUSH20 0xFFFFFFFFFFFFFFFFFFFFFFFFFFFFFFFFFFFFFFFF AND EQ PUSH2 0x416 JUMPI PUSH1 0x40 MLOAD PUSH32 0x8C379A000000000000000000000000000000000000000000000000000000000 DUP2 MSTORE PUSH1 0x4 ADD PUSH2 0x40D SWAP1 PUSH2 0x848 JUMP JUMPDEST PUSH1 0x40 MLOAD DUP1 SWAP2 SUB SWAP1 REVERT JUMPDEST DUP1 PUSH1 0x3 PUSH0 PUSH2 0x100 EXP DUP2 SLOAD DUP2 PUSH1 0xFF MUL NOT AND SWAP1 DUP4 ISZERO ISZERO MUL OR SWAP1 SSTORE POP POP JUMP JUMPDEST PUSH1 0x1 SLOAD DUP2 JUMP JUMPDEST PUSH0 PUSH0 SWAP1 SLOAD SWAP1 PUSH2 0x100 EXP SWAP1 DIV PUSH20 0xFFFFFFFFFFFFFFFFFFFFFFFFFFFFFFFFFFFFFFFF AND DUP2 JUMP JUMPDEST PUSH0 PUSH0 REVERT JUMPDEST PUSH0 DUP2 SWAP1 POP SWAP2 SWAP1 POP JUMP JUMPDEST PUSH2 0x472 DUP2 PUSH2 0x460 JUMP JUMPDEST DUP2 EQ PUSH2 0x47C JUMPI PUSH0 PUSH0 REVERT JUMPDEST POP JUMP JUMPDEST PUSH0 DUP2 CALLDATALOAD SWAP1 POP PUSH2 0x48D DUP2 PUSH2 0x469 JUMP JUMPDEST SWAP3 SWAP2 POP POP JUMP JUMPDEST PUSH0 PUSH1 0x20 DUP3 DUP5 SUB SLT ISZERO PUSH2 0x4A8 JUMPI PUSH2 0x4A7 PUSH2 0x45C JUMP JUMPDEST JUMPDEST PUSH0 PUSH2 0x4B5 DUP5 DUP3 DUP6 ADD PUSH2 0x47F JUMP JUMPDEST SWAP2 POP POP SWAP3 SWAP2 POP POP JUMP JUMPDEST PUSH0 PUSH20 0xFFFFFFFFFFFFFFFFFFFFFFFFFFFFFFFFFFFFFFFF DUP3 AND SWAP1 POP SWAP2 SWAP1 POP JUMP JUMPDEST PUSH0 PUSH2 0x4E7 DUP3 PUSH2 0x4BE JUMP JUMPDEST SWAP1 POP SWAP2 SWAP1 POP JUMP JUMPDEST PUSH2 0x4F7 DUP2 PUSH2 0x4DD JUMP JUMPDEST DUP2 EQ PUSH2 0x501 JUMPI PUSH0 PUSH0 REVERT JUMPDEST POP JUMP JUMPDEST PUSH0 DUP2 CALLDATALOAD SWAP1 POP PUSH2 0x512 DUP2 PUSH2 0x4EE JUMP JUMPDEST SWAP3 SWAP2 POP POP JUMP JUMPDEST PUSH0 PUSH1 0x20 DUP3 DUP5 SUB SLT ISZERO PUSH2 0x52D JUMPI PUSH2 0x52C PUSH2 0x45C JUMP JUMPDEST JUMPDEST PUSH0 PUSH2 0x53A DUP5 DUP3 DUP6 ADD PUSH2 0x504 JUMP JUMPDEST SWAP2 POP POP SWAP3 SWAP2 POP POP JUMP JUMPDEST PUSH0 DUP2 ISZERO ISZERO SWAP1 POP SWAP2 SWAP1 POP JUMP JUMPDEST PUSH2 0x557 DUP2 PUSH2 0x543 JUMP JUMPDEST DUP3 MSTORE POP POP JUMP JUMPDEST PUSH0 PUSH1 0x20 DUP3 ADD SWAP1 POP PUSH2 0x570 PUSH0 DUP4 ADD DUP5 PUSH2 0x54E JUMP JUMPDEST SWAP3 SWAP2 POP POP JUMP JUMPDEST PUSH2 0x57F DUP2 PUSH2 0x460 JUMP JUMPDEST DUP3 MSTORE POP POP JUMP JUMPDEST PUSH0 PUSH1 0x40 DUP3 ADD SWAP1 POP PUSH2 0x598 PUSH0 DUP4 ADD DUP6 PUSH2 0x576 JUMP JUMPDEST PUSH2 0x5A5 PUSH1 0x20 DUP4 ADD DUP5 PUSH2 0x576 JUMP JUMPDEST SWAP4 SWAP3 POP POP POP JUMP JUMPDEST PUSH0 PUSH1 0x20 DUP3 ADD SWAP1 POP PUSH2 0x5BF PUSH0 DUP4 ADD DUP5 PUSH2 0x576 JUMP JUMPDEST SWAP3 SWAP2 POP POP JUMP JUMPDEST PUSH2 0x5CE DUP2 PUSH2 0x543 JUMP JUMPDEST DUP2 EQ PUSH2 0x5D8 JUMPI PUSH0 PUSH0 REVERT JUMPDEST POP JUMP JUMPDEST PUSH0 DUP2 CALLDATALOAD SWAP1 POP PUSH2 0x5E9 DUP2 PUSH2 0x5C5 JUMP JUMPDEST SWAP3 SWAP2 POP POP JUMP JUMPDEST PUSH0 PUSH1 0x20 DUP3 DUP5 SUB SLT ISZERO PUSH2 0x604 JUMPI PUSH2 0x603 PUSH2 0x45C JUMP JUMPDEST JUMPDEST PUSH0 PUSH2 0x611 DUP5 DUP3 DUP6 ADD PUSH2 0x5DB JUMP JUMPDEST SWAP2 POP POP SWAP3 SWAP2 POP POP JUMP JUMPDEST PUSH2 0x623 DUP2 PUSH2 0x4DD JUMP JUMPDEST DUP3 MSTORE POP POP JUMP JUMPDEST PUSH0 PUSH1 0x20 DUP3 ADD SWAP1 POP PUSH2 0x63C PUSH0 DUP4 ADD DUP5 PUSH2 0x61A JUMP JUMPDEST SWAP3 SWAP2 POP POP JUMP JUMPDEST PUSH0 DUP3 DUP3 MSTORE PUSH1 0x20 DUP3 ADD SWAP1 POP SWAP3 SWAP2 POP POP JUMP JUMPDEST PUSH32 0x566F74696E67206973204F464600000000000000000000000000000000000000 PUSH0 DUP3 ADD MSTORE POP JUMP JUMPDEST PUSH0 PUSH2 0x686 PUSH1 0xD DUP4 PUSH2 0x642 JUMP JUMPDEST SWAP2 POP PUSH2 0x691 DUP3 PUSH2 0x652 JUMP JUMPDEST PUSH1 0x20 DUP3 ADD SWAP1 POP SWAP2 SWAP1 POP JUMP JUMPDEST PUSH0 PUSH1 0x20 DUP3 ADD SWAP1 POP DUP2 DUP2 SUB PUSH0 DUP4 ADD MSTORE PUSH2 0x6B3 DUP2 PUSH2 0x67A JUMP JUMPDEST SWAP1 POP SWAP2 SWAP1 POP JUMP JUMPDEST PUSH32 0x596F7520616C726561647920766F746564000000000000000000000000000000 PUSH0 DUP3 ADD MSTORE POP JUMP JUMPDEST PUSH0 PUSH2 0x6EE PUSH1 0x11 DUP4 PUSH2 0x642 JUMP JUMPDEST SWAP2 POP PUSH2 0x6F9 DUP3 PUSH2 0x6BA JUMP JUMPDEST PUSH1 0x20 DUP3 ADD SWAP1 POP SWAP2 SWAP1 POP JUMP JUMPDEST PUSH0 PUSH1 0x20 DUP3 ADD SWAP1 POP DUP2 DUP2 SUB PUSH0 DUP4 ADD MSTORE PUSH2 0x71B DUP2 PUSH2 0x6E2 JUMP JUMPDEST SWAP1 POP SWAP2 SWAP1 POP JUMP JUMPDEST PUSH32 0x496E76616C69642063616E646964617465000000000000000000000000000000 PUSH0 DUP3 ADD MSTORE POP JUMP JUMPDEST PUSH0 PUSH2 0x756 PUSH1 0x11 DUP4 PUSH2 0x642 JUMP JUMPDEST SWAP2 POP PUSH2 0x761 DUP3 PUSH2 0x722 JUMP JUMPDEST PUSH1 0x20 DUP3 ADD SWAP1 POP SWAP2 SWAP1 POP JUMP JUMPDEST PUSH0 PUSH1 0x20 DUP3 ADD SWAP1 POP DUP2 DUP2 SUB PUSH0 DUP4 ADD MSTORE PUSH2 0x783 DUP2 PUSH2 0x74A JUMP JUMPDEST SWAP1 POP SWAP2 SWAP1 POP JUMP JUMPDEST PUSH32 0x4E487B7100000000000000000000000000000000000000000000000000000000 PUSH0 MSTORE PUSH1 0x11 PUSH1 0x4 MSTORE PUSH1 0x24 PUSH0 REVERT JUMPDEST PUSH0 PUSH2 0x7C1 DUP3 PUSH2 0x460 JUMP JUMPDEST SWAP2 POP PUSH32 0xFFFFFFFFFFFFFFFFFFFFFFFFFFFFFFFFFFFFFFFFFFFFFFFFFFFFFFFFFFFFFFFF DUP3 SUB PUSH2 0x7F3 JUMPI PUSH2 0x7F2 PUSH2 0x78A JUMP JUMPDEST JUMPDEST PUSH1 0x1 DUP3 ADD SWAP1 POP SWAP2 SWAP1 POP JUMP JUMPDEST PUSH32 0x4F6E6C792061646D696E20616C6C6F7765640000000000000000000000000000 PUSH0 DUP3 ADD MSTORE POP JUMP JUMPDEST PUSH0 PUSH2 0x832 PUSH1 0x12 DUP4 PUSH2 0x642 JUMP JUMPDEST SWAP2 POP PUSH2 0x83D DUP3 PUSH2 0x7FE JUMP JUMPDEST PUSH1 0x20 DUP3 ADD SWAP1 POP SWAP2 SWAP1 POP JUMP JUMPDEST PUSH0 PUSH1 0x20 DUP3 ADD SWAP1 POP DUP2 DUP2 SUB PUSH0 DUP4 ADD MSTORE PUSH2 0x85F DUP2 PUSH2 0x826 JUMP JUMPDEST SWAP1 POP SWAP2 SWAP1 POP JUMP INVALID LOG2 PUSH5 0x6970667358 0x22 SLT KECCAK256 DUPN 0x8B EXTSTATICCALL SWAP15 JUMP DUP6 0xC9 SWAP8 CALLCODE LOG3 0xB3 0xAC SWAP15 INVALID 0x21 0xB9 MLOAD PUSH31 0x5293D98CDF369FF3CEFEADABA3FE64736F6C634300081F0033000000000000 "
				},
				"gasEstimates": {
					"creation": {
						"codeDepositCost": "440800",
						"executionCost": "49002",
						"totalCost": "489802"
					},
					"external": {
						"admin()": "2573",
						"candidate1Votes()": "2469",
						"candidate2Votes()": "2425",
						"getVotes()": "infinite",
						"hasVoted(address)": "2856",
						"toggleVoting(bool)": "26863",
						"vote(uint256)": "infinite",
						"votingOn()": "2533"
					}
				},
				"methodIdentifiers": {
					"admin()": "f851a440",
					"candidate1Votes()": "df972163",
					"candidate2Votes()": "775a1d8f",
					"getVotes()": "0dc96015",
					"hasVoted(address)": "09eef43e",
					"toggleVoting(bool)": "855ff681",
					"vote(uint256)": "0121b93f",
					"votingOn()": "20949bb4"
				}
			},
			"storageLayout": {
				"storage": [
					{
						"astId": 3,
						"contract": "simpleVoting.sol:SimpleVoting",
						"label": "admin",
						"offset": 0,
						"slot": "0",
						"type": "t_address"
					},
					{
						"astId": 5,
						"contract": "simpleVoting.sol:SimpleVoting",
						"label": "candidate1Votes",
						"offset": 0,
						"slot": "1",
						"type": "t_uint256"
					},
					{
						"astId": 7,
						"contract": "simpleVoting.sol:SimpleVoting",
						"label": "candidate2Votes",
						"offset": 0,
						"slot": "2",
						"type": "t_uint256"
					},
					{
						"astId": 9,
						"contract": "simpleVoting.sol:SimpleVoting",
						"label": "votingOn",
						"offset": 0,
						"slot": "3",
						"type": "t_bool"
					},
					{
						"astId": 13,
						"contract": "simpleVoting.sol:SimpleVoting",
						"label": "hasVoted",
						"offset": 0,
						"slot": "4",
						"type": "t_mapping(t_address,t_bool)"
					}
				],
				"types": {
					"t_address": {
						"encoding": "inplace",
						"label": "address",
						"numberOfBytes": "20"
					},
					"t_bool": {
						"encoding": "inplace",
						"label": "bool",
						"numberOfBytes": "1"
					},
					"t_mapping(t_address,t_bool)": {
						"encoding": "mapping",
						"key": "t_address",
						"label": "mapping(address => bool)",
						"numberOfBytes": "32",
						"value": "t_bool"
					},
					"t_uint256": {
						"encoding": "inplace",
						"label": "uint256",
						"numberOfBytes": "32"
					}
				}
			},
			"userdoc": {
				"kind": "user",
				"methods": {},
				"version": 1
			}
		}
	}
}